:0400000041EF00F0DC
:100008005582FACF47F0FBCF48F0E9CF49F0EACF65
:100018004AF0E1CF4BF0E2CF4CF0D9CF4DF0DACF38
:100028004EF0F3CF4FF0F4CF50F0F6CF51F0F7CFBA
:1000380052F0F8CF53F0F5CF54F041EC06F054C02D
:10004800F5FF53C0F8FF52C0F7FF51C0F6FF50C08C
:10005800F4FF4FC0F3FF4EC0DAFF4DC0D9FF4CC0CC
:10006800E2FF4BC0E1FF4AC0EAFF49C0E9FF48C0D0
:0E007800FBFF47C0FAFF55921100D6EF0FF0C4
:100300000001000A006400E8031027D00356038AA6
:1003100003130309024300020100C0320904000074
:100320000102020100052400100104240202052438
:1003300006000105240100010705810308000209E8
:10034000040100020A000000070502024000000745
:1003500005820240000034034D0069006300720012
:100360006F006300680069007000200054006500A1
:10037000630068006E006F006C006F00670079001A
:10038000200049006E0063002E0034034300440047
:1003900043002000520053002D0032003300320091
:1003A000200045006D0075006C006100740069005C
:1003B0006F006E002000440065006D006F001201A8
:1003C000000202000008D8040A0000010102000136
:1003D00004030904286E756C6C290025643B2573A1
:1003E0000A00000002013205D8A410D002013051E9
:1003F0001F0B0009D8A40AD00C8E030E020131197C
:10040000D8A402D0010E01D0000E1C6E02013251A0
:10041000D8A41200020130511F0B020AD8A4120006
:10042000020134510F0B0009D8B4120002013451FB
:100430000F0B3F6E030E3F601200200E1F18D8A452
:1004400012000C8E020134BF1BD0020134510F0B7D
:100450003F6E3F50020DCA0EF324D96E000EF420F9
:10046000DA6EDECF43F0DDCF44F0020134510F0BE2
:100470003F6E3F50010DDB0EF324D96E000E1AD0F3
:10048000020134510F0B3F6E3F50020D0F0EF3244B
:10049000D96E000EF420DA6EDECF43F0DDCF44F0EB
:1004A000020134510F0B3F6E3F50010DD80EF32463
:1004B000D96E000EF420DA6EDF50426E42B002D0E8
:1004C000439401D04384020134BF0BD00201345164
:1004D0000F0B3F6E3F50020DCA0EF324D96E000E73
:1004E0000AD0020134510F0B3F6E3F50020D0F0E28
:1004F000F324D96E000EF420DA6E43C0DEFF44C050
:10050000DDFF030E02013119D8A42FD043C0D9FF5B
:1005100044C0DAFFDFAE1CD0020134BF0BD00201B1
:1005200034510F0B3F6E3F50010DDB0EF324D96E9B
:10053000000E0AD0020134510F0B3F6E3F50010DE7
:10054000D80EF324D96E000EF420DA6E0001DF829B
:1005500043C0D9FF44C0DAFF000EDB8443C0D9FF9B
:1005600044C0DAFF000EDB8E1200040E431A43C0B3
:10057000D9FF44C0DAFFDFAE1BD043C0D9FF44C06F
:10058000DAFF7F0EDF1643C0D9FF44C0DAFF000E4A
:10059000DB8C000E386E050E376E43C039F044C058
:1005A0003AF0000E3C6E020E3B6ED6EC0DF006D01B
:1005B00043C0D9FF44C0DAFF000EDB8C040E431A9F
:1005C00042B206D043C0D9FF44C0DAFFDFAE31D01B
:1005D000020134BF0BD0020134510F0B3F6E3F506C
:1005E000010DDB0EF324D96E000E0AD00201345146
:1005F0000F0B3F6E3F50010DD80EF324D96E000E45
:10060000F420DA6E0001DF9243C0D9FF44C0DAFF64
:100610003B0EDF16000E386E050E376E43C039F004
:1006200044C03AF0000E3C6E020E3B6ED6EC0DF06C
:1006300006D043C0D9FF44C0DAFF3B0EDF160201EB
:1006400034510F0B3F6E3F50010D530EF324406E9B
:100650000F0EF420416E40C0D9FF41C0DAFFFE0EFC
:10066000DF161200700E0001776F000E0001786F28
:10067000F2D0250E00017D19D8B40AD06CC0D9FF84
:100680006DC0DAFF7DC0DFFF00016C4B6D2BE3D046
:10069000000E0001756F49D077C0D9FF78C0DAFF2E
:1006A000DECF79F0DDCF7AF0020E00017727000E61
:1006B00078230001795100017A11D8A422D0D40EF8
:1006C0000001796F030E00017A6F1BD079C0F6FF2D
:1006D0007AC0F7FFF86A6CC0D9FF6DC0DAFF020E6E
:1006E000F76403D00800F55005D0F6CFE1FFF7CF4F
:1006F000E2FFE750DF6E0001794B7A2B00016C4B73
:100700006D2B79C0F6FF7AC0F7FFF86A020EF76426
:1007100003D00800F55005D0F6CFE1FFF7CFE2FF98
:10072000E7500009D8B497D0D1D76EC0F6FF6FC09C
:10073000F7FF00016E4B6F2B0800F5CF7DF0000135
:100740007D51000AD8B495D0640AD8B407D00D0AF8
:10075000D8B404D01A0AD8B49FD77DD077C0D9FFB7
:1007600078C0DAFFDECF7BF0DDCF7CF0020E000137
:100770007727000E782300017CAF08D0030E00011C
:10078000751300017B6D7C1FD8B07C2B010E00011E
:100790007D6F050E00017D19D8B416D000017D5182
:1007A000020D010EF324F66E030EF420F76E09001D
:1007B000F55000017B5D0900F55000017C59D8A07F
:1007C00003D000017D2BE5D775C074F0030E000146
:1007D0007417D8B409D06CC0D9FF6DC0DAFF2D0EE4
:1007E000DF6E00016C4B6D2B7DC076F02ED00001CA
:1007F0007651020D010EF324F66E030EF420F76E0F
:100800000900F5CF62F00A00F5CF63F07BC060F01D
:100810007CC061F09AEC0DF060C067F061C068F0D8
:10082000000E00016A6F0A0E696F44EC0EF00001C1
:100830006751300F00017D6F6CC0D9FF6DC0DAFFCA
:100840007DC0DFFF00016C4B6D2B000176070001BE
:100850007629D8A4CCD76EC0F6FF6FC0F7FF000191
:100860006E4B6F2B0800F5CF7DF000017D51D8A4B1
:1008700000D76CC0D9FF6DC0DAFF000EDF6E12002A
:10088000A094000E0F015F6F000E626E000E0F014C
:10089000536F540E0001606F0F0E0001616F000E68
:1008A0000001636F000E626F000E0001656F020EA3
:1008B000646F2EEC0FF0160E616E9F0E0F015B6FD2
:1008C0007B0E606E000E0001686F0B0E0001686504
:1008D00001D010D000016851040D000EF324D96E30
:1008E000020EF420DA6EDE6ADE6ADE6ADD6A00017C
:1008F000682BEBD7648C000E0F015C6F6498649CCE
:100900006296000E0C6E000E046E000E066E000E57
:10091000056E62B6F5D7010E206E010E216E000E37
:100920000001E86F000E0001E96F000E1D6E000E61
:100930000001686F020E0001686501D033D000012C
:100940006851020D0F0EF324D96E000EF420DA6EFA
:10095000000EDE6E000EDD6E00016851020DCA0E43
:10096000F324D96E000EF420DA6E000EDE6E000E57
:10097000DD6E00016851010DD80EF324D96E000E12
:10098000F420DA6E000EDF6E00016851010DDB0EFF
:10099000F324D96E000EF420DA6E000EDF6E000133
:1009A000682BC8D7080E0F6E020E106E160E0F01C0
:1009B000536F020E0201036F300E026F080E020128
:1009C000016F040E0201006F0201008F000E296EFC
:1009D000000E0001D46F000ED56F000ED66F000E12
:1009E000D76F000E0001EA6F000E1F6E1200A09478
:1009F000000E0F015F6F000E626E000E0F01536F4D
:100A0000540E2B6E0F0E2C6E000E2E6E000E2D6EE1
:100A1000000E306E020E2F6EABEC0FF0160E616EF4
:100A20009F0E0F015B6F7B0E606E000E336E0B0E20
:100A3000336401D00ED03350040D000EF324D96E70
:100A4000020EF420DA6EDE6ADE6ADE6ADD6A332ABE
:100A5000EED7648C000E0F015C6F6498649C629604
:100A6000000E0C6E000E046E000E066E000E056E7B
:100A700062B6F5D7010E206E010E216E000E000148
:100A8000E86F000E0001E96F000E1D6E000E336E60
:100A9000020E336401D02ED03350020D0F0EF3241A
:100AA000D96E000EF420DA6E000EDE6E000EDD6EE2
:100AB0003350020DCA0EF324D96E000EF420DA6E04
:100AC000000EDE6E000EDD6E3350010DD80EF324E5
:100AD000D96E000EF420DA6E000EDF6E3350010D79
:100AE000DB0EF324D96E000EF420DA6E000EDF6EFA
:100AF000332ACED7080E0F6E020E106E160E0F019F
:100B0000536F020E0201036F300E026F080E0201D6
:100B1000016F040E0201006F0201008F000E296EAA
:100B2000000E0001D46F000ED56F000ED66F000EC0
:100B3000D76F000E0001EA6F000E1F6E1200A09426
:100B40000001E4510001E511D8B409D0E4C0D9FF97
:100B5000E5C0DAFF0001DFAE02D0A0841200030E70
:100B60002418D8A402D0000E246E2450D8A402D099
:100B7000A0841200020E2418D8A416D0010E000181
:100B8000606F000E0001616F000E0001626F000EC9
:100B90000001636F020E44EC09F060C0E4F061C034
:100BA000E5F0030E246E6BD02404D8A468D0400E68
:100BB000256404D0400E0001686F02D025C068F0A3
:100BC0000001685100082524256E400E0001DE6FEB
:100BD000020E0001DF6F68C067F00001EB51D8B46E
:100BE00013D02AD0E1C0D9FFE2C0DAFFDEC0E1FFB6
:100BF000DFC0E2FFDFCFE7FF0001DE4BDF2B0001AC
:100C0000E14BE22B00016707000167510001D8B4F6
:100C100018D0E8D7E1C0D9FFE2C0DAFFDEC0E1FFBB
:100C2000DFC0E2FFDFCFE7FF0001DE4BDF2B00017B
:100C3000E14BE22B00016707000167510001D8A4D6
:100C4000E9D72550D8A409D0400E00016819D8A4CE
:100C500002D0020E01D0030E246E010E0001606F5F
:100C6000400E0001616F020E0001626F68C063F008
:100C7000020E44EC09F060C0E4F061C0E5F0A0842D
:100C800012001F04D8B464BA06D0000E626E6080F1
:100C90006088020E1F6E62B460A403D0629448ECB8
:100CA0000FF064A202D0A194120062B060A006D03E
:100CB000F7EC04F0A084040E1F6E629062B860A886
:100CC00002D094EC0FF062AC1AD060AC0ED0000EE3
:100CD000386E730E376E000E396E000E3A6E000ECF
:100CE0003C6E010E3B6ED6EC0DF0629CE9EC0FF011
:100CF0002250D8A422062250D8B417EC0AF062BAC7
:100D000060AA02D0CDEC0EF062B260A210D07F0ECD
:100D1000386E3768000E396E000E3A6E000E3C6E6B
:100D2000010E3B6ED6EC0DF0000E0F015F6F040E4E
:100D30001F6002D0A194120060A639D0000E466E4A
:100D4000030E466401D033D062A631D063CF2AF0BF
:100D50002A30E832E8320F0B276E62962AB407D0A9
:100D60002750010DDB0EF324D96E000E06D027505C
:100D7000010DD80EF324D96E000EF420DA6E0001B6
:100D8000DF702750D8A403D00FEC0DF00ED0000E6A
:100D9000386E720E376E2A0E396E000E3A6E000EE5
:100DA0003C6E000E3B6ED6EC0DF0462AC9D7A194DE
:100DB0001200800E02013019D8A41200C00E0C6E71
:100DC0007CD0BE0E096E030E0A6E000E0E6E120E61
:100DD0000D6E120002013251D8A43ED002013251F0
:100DE000020D110EF324F66E030EF420F76E0900C7
:100DF000F5CF09F00A00F5CF0AF0020E09242B6E98
:100E0000000E0A202C6E2BC0F6FF2CC0F7FFF86AEC
:100E1000020EF76403D00800F55005D0F6CFE1FFCD
:100E2000F7CFE2FFE7500D6E030E09242B6E000E84
:100E30000A202C6E2BC0F6FF2CC0F7FFF86A020EBA
:100E4000F76403D00800F55005D0F6CFE1FFF7CFE7
:100E5000E2FFE7500E6E1200000E0C6E1200030E41
:100E60000201326124D002013251020D0B0EF32433
:100E7000F66E030EF420F76E0900F5CF09F00A00B4
:100E8000F5CF0AF009C0F6FF0AC0F7FFF86A020EB4
:100E9000F76403D00800F55005D0F6CFE1FFF7CF97
:100EA000E2FFE7502B6E2B500D6E0E6A1200000E03
:100EB0000C6E1200000E0C6E120002013351010A7A
:100EC000D8B47FD7030AD8B485D7010AD8B4C7D716
:100ED000F1D720EE01F01750D9261850DA22DF5052
:100EE0002C6E2C50055C000E0658D8A005C02CF0C6
:100EF0002C50055E000E065A000E2B6E11D02B50A2
:100F0000010D380EF324D96E020EF420DA6E01C002
:100F1000E1FF02C0E2FFDFCFE7FF014A022A2B2AEE
:100F20002C502B5CD8A0EBD705500610D8B432D08B
:100F300020EE01F01950D9261A50DA22080EDF6E81
:100F400020EE02F01950D9261A50DA22380EDE6E41
:100F5000020EDD6E17C0D9FF18C0DAFFDFBC0DD05E
:100F600019C0D9FF1AC0DAFF480EDF6E19C0D9FFC9
:100F70001AC0DAFF000EDB8E120019C0D9FF1AC0AA
:100F8000DAFF080EDF6E19C0D9FF1AC0DAFF000EB3
:100F9000DB8E120020EE01F01950D9261A50DA2209
:100FA000080EDF6E20EE02F01950D9261A50DA2210
:100FB000300EDE6E020EDD6E19C0D9FF1AC0DAFFE8
:100FC000040EDF6E19C0D9FF1AC0DAFF000EDB8EE7
:100FD000049E1E50D8A4120017EC0AF01200649868
:100FE0000CBE39D004AE0CD0020E266E0001E951C1
:100FF000D8B42FEC0CF0000E216E000E206E120003
:1010000020EE01F01950D9261A50DA22080EDF6EB0
:1010100020EE02F01950D9261A50DA22300EDE6E78
:10102000020EDD6E19C0D9FF1AC0DAFF0C0EDF6E9A
:1010300019C0D9FF1AC0DAFF000EDB8E0FC0D9FF2E
:1010400010C0DAFF040EDF6E0FC0D9FF10C0DAFF48
:10105000000EDB8E1200020130AF11D0010E266EA1
:101060000001E851D8B42FEC0CF0000E216E000EF8
:10107000206E1E50D8A4120017EC0AF01200020EC7
:10108000266E20EE01F01950D9261A50DA22080EE9
:10109000DF6E20EE02F01950D9261A50DA22300EF7
:1010A000DE6E020EDD6E19C0D9FF1AC0DAFF040E23
:1010B000DF6E19C0D9FF1AC0DAFF000EDB8E000EFA
:1010C000216E000E206E1E50D8A4120017EC0AF0FC
:1010D00012000C8E540E2B6E0F0E2C6E000E2E6E08
:1010E000000E2D6E000E306E020E2F6EABEC0FF068
:1010F000000E2B6E020E2C6E000E2E6E000E2D6E4C
:10110000000E306E300E2F6EABEC0FF0648C000EC4
:101110003F6E020E3F6401D016D03F50010DD80E35
:10112000F324D96E000EF420DA6E000EDF6E3F500D
:10113000010DDB0EF324D96E000EF420DA6E000EE2
:10114000DF6E3F2AE6D7FC0E2B6E000E2C6E000ED3
:101150002E6E000E2D6E000E306E020E2F6EABEC5A
:101160000FF0649C080E0F6E020E106E000E176ECC
:10117000020E186E17C019F018C01AF032C229F00A
:101180002950D8A403D0100E1F6E1200000E386E26
:10119000010E376E290E396E000E3A6E000E3C6E4F
:1011A000010E3B6ED6EC0DF0200E1F6E12000201F8
:1011B0003039E832030B0009D8A4120043D00C8E5A
:1011C000080E1F6E1200D9EC06F0120069EC08F050
:1011D0001200290E096E000E0A6E0C80010E0D6EB3
:1011E0000C8E120088EC0BF01200F2EC01F01200F1
:1011F00002013451010DFC0EF324096E000EF4209F
:101200000A6E0C80010E0D6E0C8E12000C8E020107
:101210003451010DFC0EF324D96E000EF420DA6E69
:1012200032C2DFFF1200000E386E020E376E000E63
:10123000396E000E3A6E000E3C6E000E3B6ED6EC20
:101240000DF0120002013151000AD8B4CBD7010AC7
:10125000D8B4CBD7020AD8B4C8D7060AD8B4AFD707
:10126000030AD8B4B0D7010AD8B4DDD70F0AD8B46E
:10127000B0D7010AD8B4AAD7030AD8B4B9D7010A9B
:10128000D8B4C4D7070A12000001646F000160518E
:101290000001D8B408D000016451020D0F0EF324F0
:1012A000D96E000E07D000016451020DCA0EF3245E
:1012B000D96E000EF420DA6EDECF65F0DDCF66F079
:1012C0000001655100016611D8A407D0000E00018D
:1012D000606F000E0001616F1200000120EE02F04D
:1012E0006551D9266651DA2261C0DEFF62C0DDFF9A
:1012F000000120EE01F06551D9266651DA2263C063
:10130000DFFF65C0D9FF66C0DAFF400EDF1665C09B
:10131000D9FF66C0DAFF000EDB8665C0D9FF66C064
:10132000DAFF000EDB8E000160510001D8B408D056
:1013300000016451020D0F0EF324D96E000E07D088
:1013400000016451020DCA0EF324D96E000EF42080
:10135000DA6E040EDF1A65C060F066C061F012003C
:10136000080E2B6E0E5010E1080E0D5CD8B00CD09C
:101370000DC02BF02850D8A402D0010E04D02804B0
:10138000D8A402D0020E286E2B500D5E000E0E5A0D
:1013900020EE01F00F50D9261050DA222BC0DFFFCB
:1013A000380E0001E66F020E0001E76F0CA01CD0A2
:1013B0003AD009C0F6FF0AC0F7FFF86AE6C0D9FFC5
:1013C000E7C0DAFF020EF76403D00800F55005D03D
:1013D000F6CFE1FFF7CFE2FFE750DF6E094A0A2AB6
:1013E0000001E64BE72B2B062B50D8B41200E1D7B7
:1013F00009C0F6FF0AC0F7FFF86AE6C0D9FFE7C0E8
:10140000DAFF020EF76403D00800F55005D0F6CFDE
:10141000E1FFF7CFE2FFE750DF6E094A0A2A000139
:10142000E64BE72B2B062B50D8B41200E1D7205007
:10143000D8A41200010E206E2150D8A41200010E73
:10144000216E020E2618D8A415D020EE01F00F5000
:10145000D9261050DA22000EDF6E0FC0D9FF10C05F
:10146000DAFF480EDF6E0FC0D9FF10C0DAFF000EA2
:10147000DB8E12002604D8A41200000E1B6E20EE94
:1014800001F01750D9261850DA22080EDF6E20EE30
:1014900002F01750D9261850DA22300EDE6E020EF6
:1014A000DD6E17C0D9FF18C0DAFF040EDF6E17C05B
:1014B000D9FF18C0DAFF000EDB8E010E1B6E20EE86
:1014C00001F01950D9261A50DA22080EDF6E20EEEC
:1014D00002F01950D9261A50DA22300EDE6E020EB2
:1014E000DD6E19C0D9FF1AC0DAFF800EDF6E120060
:1014F0002F6E2B50D8B407D02F50020D0F0EF324AF
:10150000D96E000E06D02F50020DCA0EF324D96EEC
:10151000000EF420DA6EDECF30F0DDCF31F0305047
:101520003110D8A405D0000E2B6E000E2C6E1200C8
:1015300020EE02F03050D9263150DA222CC0DEFFE6
:101540002DC0DDFF20EE01F03050D9263150DA22D7
:101550002EC0DFFF30C0D9FF31C0DAFF400EDF16EA
:1015600030C0D9FF31C0DAFF000EDB8630C0D9FFB2
:1015700031C0DAFF000EDB8E2B50D8B407D02F50CD
:10158000020D0F0EF324D96E000E06D02F50020D5F
:10159000CA0EF324D96E000EF420DA6E040EDF1AA0
:1015A00030C02BF031C02CF012000FC0D9FF10C09A
:1015B000DAFF000EDFBC010E2C6E040E0F1A080EAF
:1015C0001F18D8A40DD0020132517F0B0F015C6FA0
:1015D0000F015C51D8B402D0100E01D0040E1F6E62
:1015E0002604D8A43AD020EE02F00F50D92610508D
:1015F000DA22380EDE6E020EDD6EB0EC09F0020E5D
:101600002818D8A40DD00FC0D9FF10C0DAFF040EDF
:10161000DF6E0FC0D9FF10C0DAFF000EDB8E1200A4
:101620002C50D8A40DD00FC0D9FF10C0DAFF480E3F
:10163000DF6E0FC0D9FF10C0DAFF000EDB8E120084
:101640000FC0D9FF10C0DAFF080EDF6E0FC0D9FF40
:1016500010C0DAFF000EDB8E120004BE049E000EE6
:10166000266E1200020130511F0BE806D8A41200AA
:1016700002013039E832030BE806D8A41200020157
:101680003451D8B433D002013405D8A412002ED07E
:10169000ED0E096E000E0A6E000E0E6E080E0D6E37
:1016A0000C800C8E1200ED0E096E000E0A6E0C8E70
:1016B000120036C205F037C206F0F50E016E000EBC
:1016C000026E000E076E000E086E048E1200F50EFC
:1016D000096E000E0A6E000E0E6E070E0D6EC10E24
:1016E0000C6E120032C2ECF00C8E1200020131516D
:1016F000000AD8B4CDD7010AD8B4D5D7210AD8B4B6
:10170000D8D7010AD8B4E3D7030AD8A41200EAD77D
:10171000000E0201386F000E0201396F38D00C8EB6
:101720001C04D8A440D0020138833DD00C8E3BD09D
:101730000C8E020134BF0BD0020134510F0B2B6E03
:101740002B50020DCA0EF324D96E000E0AD00201EE
:1017500034510F0B2B6E2B50020D0F0EF324D96E4C
:10176000000EF420DA6EDECF2CF0DDCF2DF02CC091
:10177000D9FF2DC0DAFFDFAE16D02CC0D9FF2DC0A7
:10178000DAFFDFA410D0010E0201386F0CD0020185
:1017900030511F0B000AD8B4C2D7010AD8B4C6D73B
:1017A000030AD8B4C5D70CAE1200380E096E020E6B
:1017B0000A6E0C80020E0D6E1200000E236E155084
:1017C0001610D8B406D015C0D9FF16C0DAFFDFBE98
:1017D00044D020EE01F01550D9261650DA2200012F
:1017E0006951DE5CD8B009D020EE01F01550D92641
:1017F0001650DA22DF500001696F000E236E15D0FB
:101800002350010D800EF324D96E020EF420DA6EFF
:101810002350010DF35000016725E16EF4500001E3
:101820006821E26EDFCFE7FF232A00016951235CC4
:10183000D8A0E6D7000E0001606F800E0001616F36
:10184000020E0001626F400E0001636F020E44EC55
:1018500009F060C015F061C016F023501200000EB0
:101860000001E86F000E0001E96F020E2618D8A4EF
:101870001FD020EE01F01950D9261A50DA22080E96
:10188000DF6E20EE02F01950D9261A50DA22380EF7
:10189000DE6E020EDD6E19C0D9FF1AC0DAFF480EE7
:1018A000DF6E19C0D9FF1AC0DAFF000EDB8E1200FE
:1018B0000D500201365D0E5002013759D8B004D0E8
:1018C00036C20DF037C20EF0B0EC09F020EE02F097
:1018D0000F50D9261050DA22380EDE6E020EDD6E61
:1018E0000FC0D9FF10C0DAFF480EDF6E0FC0D9FF5E
:1018F00010C0DAFF000EDB8E1200306E000E316E6B
:10190000020E326E2B502C6E2D6AD8902C362D364E
:1019100030502E6E2F6AD8902E362F36D8902E3615
:101920002F362C502E262D502F22D8902E362F3683
:10193000D8902E362F362E5031262F50322231C0DD
:10194000D9FF32C0DAFFDF9E2B50D8A407D0305029
:10195000020DCA0EF324D96E000E06D03050020DCF
:101960000F0EF324D96E000EF420DA6E31C0DEFFC4
:1019700032C0DDFF31C0D9FF32C0DAFFDF9C20EE7C
:1019800004F03150D9263250DA22DF8C12002CECD0
:1019900010F03BD07E0E00016B6F000E00016C6FEB
:1019A000000E00016E6F400E6D6F7BEC0FF06BC090
:1019B000BEF06CC0BFF00001BFBF27D00001BF5117
:1019C00004E10001BE05D8A020D0000E00016C6F1C
:1019D000010E00016D6FDB0E00016E6F030E000142
:1019E0006F6FBEC070F0BFC071F07E0E0001726FED
:1019F000000E0001736F32EC03F0000E0001696FFE
:101A0000010E00016A6F16EC10F0FCEC0FF0000103
:101A1000695100016A11D8B441EF00F0BBD72D0E17
:101A2000226E2AC045F0FD0E4516D8A438D02AC033
:101A300045F0D89045323F0E45164550040D000E36
:101A4000F324176E020EF420186E17C019F018C098
:101A50001AF0040E191A17C0D9FF18C0DAFFDF30C8
:101A6000E8320F0B0D0AD8A417D0300E2B6E020EE1
:101A70002C6E20EE02F01750D9261850DA22DECF55
:101A80002DF0DDCF2EF0000E306E080E2F6EF0EC34
:101A90000EF057EC0DF0120075EC0EF012002A500B
:101AA000FD0B040AD8A41200D5EC0AF01200000EB7
:101AB000286E000E1E6E000E0001E86F000E000181
:101AC000E96F000E1B6E000E266E0FC0D9FF10C00E
:101AD000DAFF7F0EDF16040E0F1A0FC0D9FF10C0F9
:101AE000DAFF7F0EDF16040E0F1A19C0D9FF1AC0D5
:101AF000DAFF7F0EDF16000E0C6E000E0E6E000E6B
:101B00000D6E000E046E000E066E000E056ED7EC14
:101B100008F0000E386E030E376E000E396E000EA0
:101B20003A6E000E3C6E000E3B6ED6EC0DF0EFEC04
:101B300007F01200000E0001666F000E656F0001D5
:101B4000625100016311D8B42CD0010E0001646F02
:101B500006D00001D890623763370001642B000182
:101B600063AFF7D70001D89065376637000162513F
:101B70000001605D0001635100016159D8A00AD0E5
:101B8000000162510001605F000163510001615B6F
:101B9000000165810001D890633362330001642F36
:101BA000E1D765C060F066C061F012000ED0010E92
:101BB00022EC10F01200020E22EC10F01200C1EC28
:101BC0000FF0120032EC0BF0120037C03DF038C0BD
:101BD0003EF03E50000AD8B404D07F0AD8A41200C8
:101BE0001AD03D50010AD8B4EAD7030AD8B412007B
:101BF000010AD8B4E7D7060AD8B41200770AD8B4D5
:101C00001200010AD8B41200070AD8B4D4D7010AC6
:101C1000D8A41200CCD73D50FF0A1200000E0001DC
:101C2000F56F4B0EF66F000EF76F000EF86F000E9B
:101C30000001F96F000E0001FA6F080E0001FB6F42
:101C4000000E236E1A0E336E010E10EC0FF01E0EF6
:101C5000336E020E10EC0FF0000E2B6E800E2C6E09
:101C6000020E2D6E400E2E6E020E78EC0AF02BC086
:101C700015F02CC016F0000E0001E46F000E0001FC
:101C8000E56F000E246E12000001695100016A1117
:101C9000D8B426D0010E00016B6F06D00001D89099
:101CA00069376A3700016B2B00016AAFF7D7000173
:101CB00069510001675D00016A5100016859D8A0AF
:101CC00008D0000169510001675F00016A510001FD
:101CD000685B0001D8906A33693300016B2FE7D746
:101CE00067C067F068C068F01200020E2618D8A41A
:101CF00003D069EC07F01200000E266E1B50D8A42A
:101D00001FD020EE01F01950D9261A50DA22080E01
:101D1000DF6E20EE02F01950D9261A50DA22300E6A
:101D2000DE6E020EDD6E19C0D9FF1AC0DAFF0C0E8E
:101D3000DF6E19C0D9FF1AC0DAFF000EDB8E120069
:101D4000000E1B6E1200A0942450D8B402D0A084C0
:101D50001200000E0001646F60C062F061C063F0A9
:101D60000001642B00016429D8B40AD062C0D9FFF5
:101D700063C0DAFF0001624B632BDF50D8A4F0D7B9
:101D800060C0E1F061C0E2F064C025F0010E000126
:101D9000EB6F010E246EA08412000F0153A11ED020
:101DA00017C0D9FF18C0DAFF800EDE18D8A414D0EF
:101DB0000FC0D9FF10C0DAFF840EDE18D8A40CD0F3
:101DC00017C0D9FF18C0DAFF0C0EDF6E17C0D9FF9D
:101DD00018C0DAFF000EDB8E0F015391629A1200D9
:101DE0002DC033F02EC034F02BC031F02CC032F0B7
:101DF0000ED033C0D9FF34C0DAFF31C0E1FF32C0AA
:101E0000E2FFDFCFE7FF334A342A314A322A2F0676
:101E1000D8A030062F28EDE13028D8B41200E9D739
:101E2000366E33A405D0000E2B6E36507DEC0CF0D0
:101E300033A205D0010E2B6E36507DEC0CF03650DF
:101E4000010D530EF324346E0F0EF420356E34C0A2
:101E5000D9FF35C0DAFF33C0DFFF120060C066F083
:101E600061C067F009D066C0D9FF67C0DAFF62C001
:101E7000DFFF0001664B672B00016407D8A06507F0
:101E800000016429F0E100016529D8B41200EBD704
:101E9000000E1D6E000E386E740E376E000E396E19
:101EA000000E3A6E000E3C6E000E3B6ED6EC0DF04E
:101EB0006492609401D0629462B4FDD7000E000178
:101EC000EA6F12001F50D8A41200000E646E000EBC
:101ED000606E160E616E9F0E0F015B6F7B0E606E63
:101EE000D08EA284A084F28E01D0648664A6FDD731
:101EF000010E1F6E12002450D8A410D06BC067F0E2
:101F00006CC068F06DC069F0DDEC0BF000016F6F24
:101F100000016F5100016B6F6C6B1200000E00012D
:101F20006C6F000E6B6F1200608462986482010E09
:101F30001D6E000E0001EA6F000E386E750E376ED2
:101F4000000E396E000E3A6E000E3C6E000E3B6EB7
:101F5000D6EC0DF012002BC031F02CC032F008D0BE
:101F600031C0D9FF32C0DAFF2DC0DFFF314A322A3B
:101F70002F06D8A030062F28F3E13028D8B412005D
:101F8000EFD70EEC0EF0000E0001F96F080E000105
:101F9000FB6F000E0001FA6F800E0001F56F250E39
:101FA000F66F000EF76F000EF86F120000EEC0F033
:101FB0003E0EEE6AE806FDE100EE01F02A0EEE6A42
:101FC000E806FDE155905592000EF86E0001C7EF4E
:101FD0000CF0010E0001D427000ED523D623D72301
:101FE0001D50D8A412000001EA2B0001EA51D8A428
:101FF00012000001EA6912009FEC05F0200E1F603C
:1020000001D0FCD764B2FAD7000E00016A6F010E4E
:10201000696F12000001606F00016051000AD8B4BE
:102020001200010AD8B41200030A12002450D8A4E6
:10203000120069C060F06AC061F0A3EC0EF09FEC82
:1020400005F012002B6E2B50000AD8B41200010AC2
:10205000D8B41200030A1200000E0AEC10F040EC93
:0820600004F062EC0FF0120025
:020000040020DA
:08000000FFFFFFFFFFFFFFFF00
:020000040030CA
:0E0000000032011EFF0081FF03C003E0034039
:00000001FF
