:040000001FEF03F0FB
:100300000001000A006400E803102748656C6C6F68
:100310000025640000000F0E126E000E136E7DD0DB
:10032000250E1818D8B404D0185024EC03F075D05A
:10033000000E146E0DC0F6FF0EC0F7FF0D4A0E2A18
:100340000800F5CF18F01850000AD8B41200640A5B
:10035000D8B403D00D0AD8A460D012C0D9FF13C0FE
:10036000DAFFDECF16F0DDCF17F0020E1226000EF8
:10037000132217AE06D0030E1412166C171ED8B037
:10038000172A010E186E050E1818D8B412D018507E
:10039000020D010EF324F66E030EF420F76E090031
:1003A000F550165C0900F5501758D8A002D0182A4D
:1003B000EAD714C011F0030E1116D8B403D02D0ED5
:1003C00024EC03F018C015F024D01550020D010ED6
:1003D000F324F66E030EF420F76E0900F5CF03F058
:1003E0000A00F5CF04F016C001F017C002F070EC5F
:1003F00002F001C008F002C009F0000E0B6E0A0EF8
:100400000A6E99EC02F00850300F186E185024EC68
:1004100003F015061528D8A4D8D70DC0F6FF0EC0D6
:10042000F7FF0D4A0E2A0800F5CF18F01850D8B47F
:10043000120076D7410E046EEE0EE82EFED7042E83
:10044000FCD700D0380EEBEC02F00A0EE82EFED7F7
:10045000390EEBEC02F00A0EE82EFED7140EEBEC90
:1004600002F00A0EE82EFED7780EEBEC02F00A0E30
:10047000E82EFED7520EEBEC02F00A0EE82EFED765
:100480006C0EEBEC02F08F0E046EDA0EE82EFED747
:10049000042EFCD700D08F0E046EDA0EE82EFED7A5
:1004A000042EFCD700D0380EEBEC02F00A0EE82E3A
:1004B000FED70C0EEBEC02F00A0EE82EFED7010E72
:1004C000EBEC02F0030E046E980EE82EFED7042E1D
:1004D000FCD7060EEBEC02F00A0EE82EFED7120057
:1004E000000E066E000E056E03500410D8B41CD02A
:1004F000010E076E04D0D89003360436072A04AEE6
:10050000FAD7D890053606360350015C04500258DD
:10051000D8A005D00350015E0450025A0580D8903F
:1005200004320332072EEDD705C001F006C002F0F9
:1005300012000A500B10D8B418D0010E0C6E04D063
:10054000D8900A360B360C2A0BAEFAD70A50085C44
:100550000B500958D8A004D00A50085E0B50095A15
:10056000D8900B320A320C2EF1D708C008F009C01F
:1005700009F01200000E1A6E720E196E0CEC03F0E8
:100580001AEC02F0000EFAEC02F00B0E0D6E030EE8
:100590000E6E8BEC01F0400EFAEC02F0110E0D6EB7
:1005A000030E0E6E19C00FF01AC010F08BEC01F0A4
:1005B000E9D7036E2EEC03F07C0E19EC03F0400E2D
:1005C00019EC03F0035019EC03F013EC03F00A0EDE
:1005D000E82EFED71200036E2EEC03F07C0E19EC11
:1005E00003F0000E19EC03F0035019EC03F013ECC8
:1005F00003F01200046E04508009EBEC02F00A0EC6
:10060000E82EFED71200C5CF01F01F0E0116D8A4A8
:10061000FAD7C7A41200F7D7800EC76E090EC86EAE
:10062000280EC66E12009E96C584C5B4FED79E964F
:100630001200026E02C0C9FF03EC03F01200000EAC
:10064000F86E0001BAEF02F0056E055029EC03F0D8
:100650001200046E0450D9EC02F01200C58003ECC5
:0406600003F0120091
:020000040020DA
:08000000FFFFFFFFFFFFFFFF00
:020000040030CA
:0E0000000038011EFF0081FF03C003E0034033
:00000001FF
